{
  "_format": "hh-sol-artifact-1",
  "contractName": "AuctionHouse",
  "sourceName": "contracts/internal/auctionhouse/AuctionHouse.sol",
  "abi": [
    {
      "anonymous": false,
      "inputs": [
        {
          "indexed": true,
          "internalType": "uint256",
          "name": "wizardId",
          "type": "uint256"
        },
        {
          "indexed": true,
          "internalType": "uint256",
          "name": "aId",
          "type": "uint256"
        },
        {
          "indexed": false,
          "internalType": "address",
          "name": "sender",
          "type": "address"
        },
        {
          "indexed": false,
          "internalType": "uint256",
          "name": "value",
          "type": "uint256"
        },
        {
          "indexed": false,
          "internalType": "bool",
          "name": "extended",
          "type": "bool"
        }
      ],
      "name": "AuctionBid",
      "type": "event"
    },
    {
      "anonymous": false,
      "inputs": [
        {
          "indexed": true,
          "internalType": "uint256",
          "name": "cap",
          "type": "uint256"
        }
      ],
      "name": "AuctionCapReached",
      "type": "event"
    },
    {
      "anonymous": false,
      "inputs": [
        {
          "indexed": true,
          "internalType": "uint256",
          "name": "cap",
          "type": "uint256"
        }
      ],
      "name": "AuctionCapUpdated",
      "type": "event"
    },
    {
      "anonymous": false,
      "inputs": [
        {
          "indexed": true,
          "internalType": "uint256",
          "name": "wizardId",
          "type": "uint256"
        },
        {
          "indexed": true,
          "internalType": "uint256",
          "name": "aId",
          "type": "uint256"
        },
        {
          "indexed": false,
          "internalType": "uint256",
          "name": "startTime",
          "type": "uint256"
        },
        {
          "indexed": false,
          "internalType": "uint256",
          "name": "endTime",
          "type": "uint256"
        },
        {
          "indexed": false,
          "internalType": "bool",
          "name": "oneOfOne",
          "type": "bool"
        },
        {
          "indexed": false,
          "internalType": "bool",
          "name": "isWhitelistDay",
          "type": "bool"
        }
      ],
      "name": "AuctionCreated",
      "type": "event"
    },
    {
      "anonymous": false,
      "inputs": [
        {
          "indexed": true,
          "internalType": "uint256",
          "name": "wizardId",
          "type": "uint256"
        },
        {
          "indexed": true,
          "internalType": "uint256",
          "name": "aId",
          "type": "uint256"
        },
        {
          "indexed": false,
          "internalType": "uint256",
          "name": "endTime",
          "type": "uint256"
        }
      ],
      "name": "AuctionExtended",
      "type": "event"
    },
    {
      "anonymous": false,
      "inputs": [
        {
          "indexed": false,
          "internalType": "uint256",
          "name": "minBidIncrementPercentage",
          "type": "uint256"
        }
      ],
      "name": "AuctionMinBidIncrementPercentageUpdated",
      "type": "event"
    },
    {
      "anonymous": false,
      "inputs": [
        {
          "indexed": false,
          "internalType": "bool",
          "name": "auctionOneOfOne",
          "type": "bool"
        }
      ],
      "name": "AuctionOneOfOne",
      "type": "event"
    },
    {
      "anonymous": false,
      "inputs": [
        {
          "indexed": false,
          "internalType": "uint256",
          "name": "reservePrice",
          "type": "uint256"
        }
      ],
      "name": "AuctionReservePriceUpdated",
      "type": "event"
    },
    {
      "anonymous": false,
      "inputs": [
        {
          "indexed": true,
          "internalType": "uint256",
          "name": "wizardId",
          "type": "uint256"
        },
        {
          "indexed": true,
          "internalType": "uint256",
          "name": "aId",
          "type": "uint256"
        },
        {
          "indexed": false,
          "internalType": "address",
          "name": "winner",
          "type": "address"
        },
        {
          "indexed": false,
          "internalType": "uint256",
          "name": "amount",
          "type": "uint256"
        }
      ],
      "name": "AuctionSettled",
      "type": "event"
    },
    {
      "anonymous": false,
      "inputs": [
        {
          "indexed": false,
          "internalType": "uint256",
          "name": "timeBuffer",
          "type": "uint256"
        }
      ],
      "name": "AuctionTimeBufferUpdated",
      "type": "event"
    },
    {
      "anonymous": false,
      "inputs": [
        {
          "indexed": false,
          "internalType": "address",
          "name": "creatorsDAO",
          "type": "address"
        }
      ],
      "name": "CreatorsDAOUpdated",
      "type": "event"
    },
    {
      "anonymous": false,
      "inputs": [
        {
          "indexed": true,
          "internalType": "address",
          "name": "previousOwner",
          "type": "address"
        },
        {
          "indexed": true,
          "internalType": "address",
          "name": "newOwner",
          "type": "address"
        }
      ],
      "name": "OwnershipTransferred",
      "type": "event"
    },
    {
      "anonymous": false,
      "inputs": [
        {
          "indexed": false,
          "internalType": "address",
          "name": "account",
          "type": "address"
        }
      ],
      "name": "Paused",
      "type": "event"
    },
    {
      "anonymous": false,
      "inputs": [
        {
          "indexed": false,
          "internalType": "address",
          "name": "account",
          "type": "address"
        }
      ],
      "name": "Unpaused",
      "type": "event"
    },
    {
      "inputs": [],
      "name": "auctionCount",
      "outputs": [
        {
          "internalType": "uint8",
          "name": "",
          "type": "uint8"
        }
      ],
      "stateMutability": "view",
      "type": "function"
    },
    {
      "inputs": [],
      "name": "auctionOneOfOne",
      "outputs": [
        {
          "internalType": "bool",
          "name": "",
          "type": "bool"
        }
      ],
      "stateMutability": "view",
      "type": "function"
    },
    {
      "inputs": [
        {
          "internalType": "uint256",
          "name": "",
          "type": "uint256"
        }
      ],
      "name": "auctions",
      "outputs": [
        {
          "internalType": "uint256",
          "name": "wizardId",
          "type": "uint256"
        },
        {
          "internalType": "uint256",
          "name": "amount",
          "type": "uint256"
        },
        {
          "internalType": "uint256",
          "name": "startTime",
          "type": "uint256"
        },
        {
          "internalType": "uint256",
          "name": "endTime",
          "type": "uint256"
        },
        {
          "internalType": "address payable",
          "name": "bidder",
          "type": "address"
        },
        {
          "internalType": "bool",
          "name": "settled",
          "type": "bool"
        },
        {
          "internalType": "bool",
          "name": "isWhitelistDay",
          "type": "bool"
        }
      ],
      "stateMutability": "view",
      "type": "function"
    },
    {
      "inputs": [
        {
          "internalType": "uint256",
          "name": "wizardId",
          "type": "uint256"
        },
        {
          "internalType": "uint256",
          "name": "aId",
          "type": "uint256"
        }
      ],
      "name": "createBid",
      "outputs": [],
      "stateMutability": "payable",
      "type": "function"
    },
    {
      "inputs": [],
      "name": "creatorFeePercent",
      "outputs": [
        {
          "internalType": "uint256",
          "name": "",
          "type": "uint256"
        }
      ],
      "stateMutability": "view",
      "type": "function"
    },
    {
      "inputs": [],
      "name": "creatorsDAO",
      "outputs": [
        {
          "internalType": "address",
          "name": "",
          "type": "address"
        }
      ],
      "stateMutability": "view",
      "type": "function"
    },
    {
      "inputs": [],
      "name": "duration",
      "outputs": [
        {
          "internalType": "uint256",
          "name": "",
          "type": "uint256"
        }
      ],
      "stateMutability": "view",
      "type": "function"
    },
    {
      "inputs": [
        {
          "internalType": "contract IWizardToken",
          "name": "_wizards",
          "type": "address"
        },
        {
          "internalType": "address",
          "name": "_creatorsDAO",
          "type": "address"
        },
        {
          "internalType": "address",
          "name": "_weth",
          "type": "address"
        },
        {
          "internalType": "uint256",
          "name": "_timeBuffer",
          "type": "uint256"
        },
        {
          "internalType": "uint256",
          "name": "_reservePrice",
          "type": "uint256"
        },
        {
          "internalType": "uint8",
          "name": "_minBidIncrementPercentage",
          "type": "uint8"
        },
        {
          "internalType": "uint256",
          "name": "_duration",
          "type": "uint256"
        },
        {
          "internalType": "bool",
          "name": "_auctionOneOfOne",
          "type": "bool"
        },
        {
          "internalType": "uint256",
          "name": "_wizardCap",
          "type": "uint256"
        }
      ],
      "name": "initialize",
      "outputs": [],
      "stateMutability": "nonpayable",
      "type": "function"
    },
    {
      "inputs": [],
      "name": "lastWizardId",
      "outputs": [
        {
          "internalType": "uint256",
          "name": "",
          "type": "uint256"
        }
      ],
      "stateMutability": "view",
      "type": "function"
    },
    {
      "inputs": [],
      "name": "minBidIncrementPercentage",
      "outputs": [
        {
          "internalType": "uint8",
          "name": "",
          "type": "uint8"
        }
      ],
      "stateMutability": "view",
      "type": "function"
    },
    {
      "inputs": [],
      "name": "oneOfOneId",
      "outputs": [
        {
          "internalType": "uint48",
          "name": "",
          "type": "uint48"
        }
      ],
      "stateMutability": "view",
      "type": "function"
    },
    {
      "inputs": [],
      "name": "owner",
      "outputs": [
        {
          "internalType": "address",
          "name": "",
          "type": "address"
        }
      ],
      "stateMutability": "view",
      "type": "function"
    },
    {
      "inputs": [],
      "name": "pause",
      "outputs": [],
      "stateMutability": "nonpayable",
      "type": "function"
    },
    {
      "inputs": [],
      "name": "paused",
      "outputs": [
        {
          "internalType": "bool",
          "name": "",
          "type": "bool"
        }
      ],
      "stateMutability": "view",
      "type": "function"
    },
    {
      "inputs": [],
      "name": "reachedCap",
      "outputs": [
        {
          "internalType": "bool",
          "name": "",
          "type": "bool"
        }
      ],
      "stateMutability": "view",
      "type": "function"
    },
    {
      "inputs": [],
      "name": "renounceOwnership",
      "outputs": [],
      "stateMutability": "nonpayable",
      "type": "function"
    },
    {
      "inputs": [],
      "name": "reservePrice",
      "outputs": [
        {
          "internalType": "uint256",
          "name": "",
          "type": "uint256"
        }
      ],
      "stateMutability": "view",
      "type": "function"
    },
    {
      "inputs": [
        {
          "internalType": "bool",
          "name": "_auctionOneOfOne",
          "type": "bool"
        }
      ],
      "name": "setAuctionOneOfOne",
      "outputs": [],
      "stateMutability": "nonpayable",
      "type": "function"
    },
    {
      "inputs": [
        {
          "internalType": "address",
          "name": "_creatorsDAO",
          "type": "address"
        }
      ],
      "name": "setCreatorsDAO",
      "outputs": [],
      "stateMutability": "nonpayable",
      "type": "function"
    },
    {
      "inputs": [
        {
          "internalType": "uint8",
          "name": "_minBidIncrementPercentage",
          "type": "uint8"
        }
      ],
      "name": "setMinBidIncrementPercentage",
      "outputs": [],
      "stateMutability": "nonpayable",
      "type": "function"
    },
    {
      "inputs": [
        {
          "internalType": "uint48",
          "name": "_oneOfOneId",
          "type": "uint48"
        }
      ],
      "name": "setOneOfOneId",
      "outputs": [],
      "stateMutability": "nonpayable",
      "type": "function"
    },
    {
      "inputs": [
        {
          "internalType": "uint256",
          "name": "_reservePrice",
          "type": "uint256"
        }
      ],
      "name": "setReservePrice",
      "outputs": [],
      "stateMutability": "nonpayable",
      "type": "function"
    },
    {
      "inputs": [
        {
          "internalType": "uint256",
          "name": "_timeBuffer",
          "type": "uint256"
        }
      ],
      "name": "setTimeBuffer",
      "outputs": [],
      "stateMutability": "nonpayable",
      "type": "function"
    },
    {
      "inputs": [
        {
          "internalType": "address[]",
          "name": "_whitelistAddrs",
          "type": "address[]"
        }
      ],
      "name": "setWhitelistAddresses",
      "outputs": [],
      "stateMutability": "nonpayable",
      "type": "function"
    },
    {
      "inputs": [
        {
          "internalType": "uint256",
          "name": "_cap",
          "type": "uint256"
        }
      ],
      "name": "setWizardCap",
      "outputs": [],
      "stateMutability": "nonpayable",
      "type": "function"
    },
    {
      "inputs": [
        {
          "internalType": "uint256",
          "name": "aId",
          "type": "uint256"
        }
      ],
      "name": "settleAuction",
      "outputs": [],
      "stateMutability": "nonpayable",
      "type": "function"
    },
    {
      "inputs": [],
      "name": "settleCurrentAndCreateNewAuction",
      "outputs": [],
      "stateMutability": "nonpayable",
      "type": "function"
    },
    {
      "inputs": [],
      "name": "stopWhitelistDay",
      "outputs": [],
      "stateMutability": "nonpayable",
      "type": "function"
    },
    {
      "inputs": [],
      "name": "timeBuffer",
      "outputs": [
        {
          "internalType": "uint256",
          "name": "",
          "type": "uint256"
        }
      ],
      "stateMutability": "view",
      "type": "function"
    },
    {
      "inputs": [
        {
          "internalType": "address",
          "name": "newOwner",
          "type": "address"
        }
      ],
      "name": "transferOwnership",
      "outputs": [],
      "stateMutability": "nonpayable",
      "type": "function"
    },
    {
      "inputs": [],
      "name": "unpause",
      "outputs": [],
      "stateMutability": "nonpayable",
      "type": "function"
    },
    {
      "inputs": [],
      "name": "weth",
      "outputs": [
        {
          "internalType": "address",
          "name": "",
          "type": "address"
        }
      ],
      "stateMutability": "view",
      "type": "function"
    },
    {
      "inputs": [
        {
          "internalType": "uint256",
          "name": "",
          "type": "uint256"
        }
      ],
      "name": "whitelistAddrs",
      "outputs": [
        {
          "internalType": "address",
          "name": "",
          "type": "address"
        }
      ],
      "stateMutability": "view",
      "type": "function"
    },
    {
      "inputs": [],
      "name": "whitelistSize",
      "outputs": [
        {
          "internalType": "uint256",
          "name": "",
          "type": "uint256"
        }
      ],
      "stateMutability": "view",
      "type": "function"
    },
    {
      "inputs": [],
      "name": "wizardCap",
      "outputs": [
        {
          "internalType": "uint256",
          "name": "",
          "type": "uint256"
        }
      ],
      "stateMutability": "view",
      "type": "function"
    },
    {
      "inputs": [],
      "name": "wizards",
      "outputs": [
        {
          "internalType": "contract IWizardToken",
          "name": "",
          "type": "address"
        }
      ],
      "stateMutability": "view",
      "type": "function"
    }
  ],
  "bytecode": "0x608060405234801561001057600080fd5b506134bd806100206000396000f3fe60806040526004361061024f5760003560e01c80638456cb5911610138578063ce9c7c0d116100b0578063f0a437141161007f578063f2fde38b11610064578063f2fde38b146106fb578063f52ccc2d1461071b578063f9e96b681461073b57600080fd5b8063f0a43714146106d0578063f25efffc146106e657600080fd5b8063ce9c7c0d14610664578063db2e1eed14610684578063e8e59c611461069a578063ec91f2a4146106ba57600080fd5b80639c45585f11610107578063ad1a26ca116100ec578063ad1a26ca14610617578063b296024d14610637578063b7751c711461065157600080fd5b80639c45585f146105c15780639d36f4ca146105f757600080fd5b80638456cb59146105595780638da5cb5b1461056e5780638f8931ae1461058c57806396c47c80146105a157600080fd5b80634ea9a09e116101cb5780635c975abb1161019a5780637120334b1161017f5780637120334b14610500578063715018a61461052057806377e5f6d41461053557600080fd5b80635c975abb146104d257806365fe174e146104ea57600080fd5b80634ea9a09e146103a457806352a317bb146103c457806353613dd3146103ee578063571a26a01461040457600080fd5b80632e993611116102225780633f4ba83a116102075780633f4ba83a146103375780633fc8cef31461034c5780634321bca21461038457600080fd5b80632e993611146102f557806336ebdb381461031757600080fd5b80630c775f31146102545780630fb5a6b41461027d57806320d3548a146102935780632ad71573146102c9575b600080fd5b34801561026057600080fd5b5061026a60d35481565b6040519081526020015b60405180910390f35b34801561028957600080fd5b5061026a60d05481565b34801561029f57600080fd5b5060d4546102b29065ffffffffffff1681565b60405165ffffffffffff9091168152602001610274565b3480156102d557600080fd5b5060d8546102e39060ff1681565b60405160ff9091168152602001610274565b34801561030157600080fd5b50610315610310366004613046565b61075b565b005b34801561032357600080fd5b506103156103323660046130f2565b61081b565b34801561034357600080fd5b506103156108be565b34801561035857600080fd5b5060cc5461036c906001600160a01b031681565b6040516001600160a01b039091168152602001610274565b34801561039057600080fd5b5061031561039f366004612fb0565b610a56565b3480156103b057600080fd5b506103156103bf366004613046565b610c20565b3480156103d057600080fd5b5060d2546103de9060ff1681565b6040519015158152602001610274565b3480156103fa57600080fd5b5061026a60ca5481565b34801561041057600080fd5b5061049061041f366004613046565b60d76020526000908152604090208054600182015460028301546003840154600490940154929391929091906001600160a01b0381169060ff740100000000000000000000000000000000000000008204811691750100000000000000000000000000000000000000000090041687565b6040805197885260208801969096529486019390935260608501919091526001600160a01b03166080840152151560a0830152151560c082015260e001610274565b3480156104de57600080fd5b5060335460ff166103de565b3480156104f657600080fd5b5061026a60d15481565b34801561050c57600080fd5b5061031561051b366004613046565b610cad565b34801561052c57600080fd5b50610315610d3c565b34801561054157600080fd5b5060d4546103de906601000000000000900460ff1681565b34801561056557600080fd5b50610315610da0565b34801561057a57600080fd5b506097546001600160a01b031661036c565b34801561059857600080fd5b50610315610e02565b3480156105ad57600080fd5b506103156105bc366004612f76565b610eb8565b3480156105cd57600080fd5b5061036c6105dc366004613046565b60d5602052600090815260409020546001600160a01b031681565b34801561060357600080fd5b50610315610612366004612ee4565b610f7d565b34801561062357600080fd5b5060c95461036c906001600160a01b031681565b34801561064357600080fd5b5060cf546102e39060ff1681565b61031561065f3660046130a8565b61103d565b34801561067057600080fd5b5061031561067f366004613046565b611512565b34801561069057600080fd5b5061026a60ce5481565b3480156106a657600080fd5b5060cb5461036c906001600160a01b031681565b3480156106c657600080fd5b5061026a60cd5481565b3480156106dc57600080fd5b5061026a60d65481565b3480156106f257600080fd5b506103156115a1565b34801561070757600080fd5b50610315610716366004612ee4565b61182c565b34801561072757600080fd5b50610315610736366004612f01565b61190b565b34801561074757600080fd5b506103156107563660046130ca565b6119f4565b60335460ff166107b25760405162461bcd60e51b815260206004820152601460248201527f5061757361626c653a206e6f742070617573656400000000000000000000000060448201526064015b60405180910390fd5b600260655414156108055760405162461bcd60e51b815260206004820152601f60248201527f5265656e7472616e637947756172643a207265656e7472616e742063616c6c0060448201526064016107a9565b600260655561081381611a87565b506001606555565b6097546001600160a01b031633146108755760405162461bcd60e51b815260206004820181905260248201527f4f776e61626c653a2063616c6c6572206973206e6f7420746865206f776e657260448201526064016107a9565b60cf805460ff191660ff83169081179091556040519081527fec5ccd96cc77b6219e9d44143df916af68fc169339ea7de5008ff15eae13450d906020015b60405180910390a150565b6097546001600160a01b031633146109185760405162461bcd60e51b815260206004820181905260248201527f4f776e61626c653a2063616c6c6572206973206e6f7420746865206f776e657260448201526064016107a9565b610920611e49565b60015b60058111610a0d57600081815260d76020908152604091829020825160e08101845281548152600182015492810192909252600281015492820183905260038101546060830152600401546001600160a01b038116608083015260ff7401000000000000000000000000000000000000000082048116151560a0840152750100000000000000000000000000000000000000000090910416151560c08201529015806109d057508060a001515b156109fa5760d15460d354111580156109ec575060d25460ff16155b156109fa576109fa82611ee5565b5080610a05816132d1565b915050610923565b5060d15460d3541480610a22575060d25460ff165b15610a545760d1546040517fb1ea45d0cb577280c164ebf840414c2f762de02e90c3789f184f5d1210ba340090600090a25b565b600054610100900460ff1680610a6f575060005460ff16155b610ae15760405162461bcd60e51b815260206004820152602e60248201527f496e697469616c697a61626c653a20636f6e747261637420697320616c72656160448201527f647920696e697469616c697a656400000000000000000000000000000000000060648201526084016107a9565b600054610100900460ff16158015610b03576000805461ffff19166101011790555b610b0b612233565b610b13612321565b610b1b6123d6565b610b23612493565b60c980547fffffffffffffffffffffffff00000000000000000000000000000000000000009081166001600160a01b038c81169190911790925560d88054600560ff1991821617909155600a60ca5560d480547fffffffffffffffffffffffffffffffffffffffffffffffffff00ffffffffffff1666010000000000008815150217905560cb805483168e851617905560cc8054909216928b1692909217905560cd88905560ce87905560cf805490911660ff871617905560d084905560d18290558015610c1457600080547fffffffffffffffffffffffffffffffffffffffffffffffffffffffffffff00ff1690555b50505050505050505050565b6097546001600160a01b03163314610c7a5760405162461bcd60e51b815260206004820181905260248201527f4f776e61626c653a2063616c6c6572206973206e6f7420746865206f776e657260448201526064016107a9565b60d181905560405181907fbe38d13216e8b69a914248c03935492c515fffb82f7200ec0cbb3edc05ef9ca490600090a250565b6097546001600160a01b03163314610d075760405162461bcd60e51b815260206004820181905260248201527f4f776e61626c653a2063616c6c6572206973206e6f7420746865206f776e657260448201526064016107a9565b60cd8190556040518181527f1b55d9f7002bda4490f467e326f22a4a847629c0f2d1ed421607d318d25b410d906020016108b3565b6097546001600160a01b03163314610d965760405162461bcd60e51b815260206004820181905260248201527f4f776e61626c653a2063616c6c6572206973206e6f7420746865206f776e657260448201526064016107a9565b610a54600061251b565b6097546001600160a01b03163314610dfa5760405162461bcd60e51b815260206004820181905260248201527f4f776e61626c653a2063616c6c6572206973206e6f7420746865206f776e657260448201526064016107a9565b610a54612493565b6097546001600160a01b03163314610e5c5760405162461bcd60e51b815260206004820181905260248201527f4f776e61626c653a2063616c6c6572206973206e6f7420746865206f776e657260448201526064016107a9565b600060d65560015b60058111610eb557600081815260d76020526040902060040180547fffffffffffffffffffff00ffffffffffffffffffffffffffffffffffffffffff169055610eae60018261317a565b9050610e64565b50565b6097546001600160a01b03163314610f125760405162461bcd60e51b815260206004820181905260248201527f4f776e61626c653a2063616c6c6572206973206e6f7420746865206f776e657260448201526064016107a9565b60d480548215156601000000000000027fffffffffffffffffffffffffffffffffffffffffffffffffff00ffffffffffff9091161790556040517f6a3f007a6dfa4acf6309c5fffc3597e819baca2260cf138443ba05227482838c906108b390831515815260200190565b60c9546001600160a01b03163314610fd75760405162461bcd60e51b815260206004820152601e60248201527f53656e646572206973206e6f74207468652063726561746f72732044414f000060448201526064016107a9565b60c980547fffffffffffffffffffffffff0000000000000000000000000000000000000000166001600160a01b0383169081179091556040519081527f25e7d5026e0fd314deaf23ad9dd18d9accf2131502d2711ba2aa789853ac7c92906020016108b3565b600260655414156110905760405162461bcd60e51b815260206004820152601f60248201527f5265656e7472616e637947756172643a207265656e7472616e742063616c6c0060448201526064016107a9565b60026065819055600082815260d76020908152604091829020825160e081018452815481526001820154928101929092529283015491810191909152600382015460608201526004909101546001600160a01b038116608083015260ff7401000000000000000000000000000000000000000082048116151560a084015275010000000000000000000000000000000000000000009091048116151560c083015260d854168211801590611145575060018210155b6111915760405162461bcd60e51b815260206004820181905260248201527f41756374696f6e204964206973206e6f742063757272656e746c79206f70656e60448201526064016107a9565b805183146111e15760405162461bcd60e51b815260206004820152601960248201527f57697a617264206e6f7420757020666f722061756374696f6e0000000000000060448201526064016107a9565b806060015142106112345760405162461bcd60e51b815260206004820152600f60248201527f41756374696f6e2065787069726564000000000000000000000000000000000060448201526064016107a9565b60ce543410156112865760405162461bcd60e51b815260206004820152601f60248201527f4d7573742073656e64206174206c65617374207265736572766550726963650060448201526064016107a9565b60cf5460208201516064916112a09160ff909116906131a6565b6112aa9190613192565b81602001516112b9919061317a565b341015611330576040805162461bcd60e51b81526020600482015260248101919091527f4d7573742073656e64206d6f7265207468616e206c617374206269642062792060448201527f6d696e426964496e6372656d656e7450657263656e7461676520616d6f756e7460648201526084016107a9565b8060c00151156113d2576000805b60d65481101561138257600081815260d560205260409020546001600160a01b03163314156113705760019150611382565b61137b60018261317a565b905061133e565b50806113d05760405162461bcd60e51b815260206004820152601a60248201527f426964646572206973206e6f74206f6e2077686974656c69737400000000000060448201526064016107a9565b505b60808101516001600160a01b038116156113f4576113f4818360200151612585565b600083815260d76020526040812034600182015560040180547fffffffffffffffffffffffff0000000000000000000000000000000000000000163317905560cd5460608401516114469042906131e3565b10905080156114765760cd5461145c904261317a565b60608401819052600085815260d760205260409020600301555b8251604080513381523460208201528315158183015290518692917f886006522303045b0c17b0633eea996eefd70e9b660ad0dfd4344e1b7f63cac7919081900360600190a38015611506578383600001517f5aa381c998833b1dd4263e146e2e5e8098b463f9f975bb0f9c6d167c0d44a32385606001516040516114fd91815260200190565b60405180910390a35b50506001606555505050565b6097546001600160a01b0316331461156c5760405162461bcd60e51b815260206004820181905260248201527f4f776e61626c653a2063616c6c6572206973206e6f7420746865206f776e657260448201526064016107a9565b60ce8190556040518181527f6ab2e127d7fdf53b8f304e59d3aab5bfe97979f52a85479691a6fab27a28a6b2906020016108b3565b600260655414156115f45760405162461bcd60e51b815260206004820152601f60248201527f5265656e7472616e637947756172643a207265656e7472616e742063616c6c0060448201526064016107a9565b600260655560335460ff161561164c5760405162461bcd60e51b815260206004820152601060248201527f5061757361626c653a207061757365640000000000000000000000000000000060448201526064016107a9565b60d15460d3541061169f5760405162461bcd60e51b815260206004820152601f60248201527f416c6c2077697a617264732068617665206265656e2061756374696f6e65640060448201526064016107a9565b60055b6001811061171d57600081815260d7602052604090206003015442101561170b5760405162461bcd60e51b815260206004820152601f60248201527f416c6c2061756374696f6e732068617665206e6f7420636f6d706c657465640060448201526064016107a9565b806117158161322a565b9150506116a2565b5060015b600581116117445761173281611a87565b8061173c816132d1565b915050611721565b50600160005260d76020527fa51546995d065b44a0663f742232ea3f69c2e6e2f799ed388e1fe3b148a95ee8547501000000000000000000000000000000000000000000900460ff161561179c5761179c600060d655565b60015b600581116117de5760d15460d354111580156117be575060d25460ff16155b156117cc576117cc81611ee5565b806117d6816132d1565b91505061179f565b5060d15460d35414806117f3575060d25460ff165b156118255760d1546040517fb1ea45d0cb577280c164ebf840414c2f762de02e90c3789f184f5d1210ba340090600090a25b6001606555565b6097546001600160a01b031633146118865760405162461bcd60e51b815260206004820181905260248201527f4f776e61626c653a2063616c6c6572206973206e6f7420746865206f776e657260448201526064016107a9565b6001600160a01b0381166119025760405162461bcd60e51b815260206004820152602660248201527f4f776e61626c653a206e6577206f776e657220697320746865207a65726f206160448201527f646472657373000000000000000000000000000000000000000000000000000060648201526084016107a9565b610eb58161251b565b6097546001600160a01b031633146119655760405162461bcd60e51b815260206004820181905260248201527f4f776e61626c653a2063616c6c6572206973206e6f7420746865206f776e657260448201526064016107a9565b60005b818110156119ed578282828181106119825761198261337c565b90506020020160208101906119979190612ee4565b600082815260d56020526040902080547fffffffffffffffffffffffff0000000000000000000000000000000000000000166001600160a01b03929092169190911790556119e660018261317a565b9050611968565b5060d65550565b6097546001600160a01b03163314611a4e5760405162461bcd60e51b815260206004820181905260248201527f4f776e61626c653a2063616c6c6572206973206e6f7420746865206f776e657260448201526064016107a9565b60d480547fffffffffffffffffffffffffffffffffffffffffffffffffffff0000000000001665ffffffffffff92909216919091179055565b600081815260d76020908152604091829020825160e08101845281548152600182015492810192909252600281015492820183905260038101546060830152600401546001600160a01b038116608083015260ff7401000000000000000000000000000000000000000082048116151560a0840152750100000000000000000000000000000000000000000090910416151560c082015290611b6b5760405162461bcd60e51b815260206004820152601460248201527f41756374696f6e206861736e277420626567756e00000000000000000000000060448201526064016107a9565b8060a0015115611bbd5760405162461bcd60e51b815260206004820181905260248201527f41756374696f6e2068617320616c7265616479206265656e20736574746c656460448201526064016107a9565b8060600151421015611c115760405162461bcd60e51b815260206004820152601860248201527f41756374696f6e206861736e277420636f6d706c65746564000000000000000060448201526064016107a9565b600082815260d76020526040902060040180547fffffffffffffffffffffff00ffffffffffffffffffffffffffffffffffffffff167401000000000000000000000000000000000000000017905560808101516001600160a01b0316611cf55760cb5481516040517f42966c680000000000000000000000000000000000000000000000000000000081526001600160a01b03909216916342966c6891611cbe9160040190815260200190565b600060405180830381600087803b158015611cd857600080fd5b505af1158015611cec573d6000803e3d6000fd5b50505050611d82565b60cb54608082015182516040517f23b872dd0000000000000000000000000000000000000000000000000000000081523060048201526001600160a01b03928316602482015260448101919091529116906323b872dd90606401600060405180830381600087803b158015611d6957600080fd5b505af1158015611d7d573d6000803e3d6000fd5b505050505b602081015115611df557602081015160ca54600090611daf90606490611da99085906126a1565b90612745565b60c954909150611dc8906001600160a01b031682612585565b6000611dd48383612787565b9050611df1611deb6097546001600160a01b031690565b82612585565b5050505b80516080820151602080840151604080516001600160a01b039094168452918301528492917fa3f81c0e157dc1e05cb31e254314bbde8e3878d9ff78b10ef6abfe316492bfbe910160405180910390a35050565b60335460ff16611e9b5760405162461bcd60e51b815260206004820152601460248201527f5061757361626c653a206e6f742070617573656400000000000000000000000060448201526064016107a9565b6033805460ff191690557f5db9ee0a495bf2e6ff9c91a7834c1ba4fdd244a5e8aa4e537bd38aeae4b073aa335b6040516001600160a01b03909116815260200160405180910390a1565b611ef060058261330a565b158015611f09575060d4546601000000000000900460ff165b1561222a5760cb5460d4546040517f8c825c0800000000000000000000000000000000000000000000000000000000815265ffffffffffff90911660048201526001600160a01b0390911690638c825c08906024016040805180830381600087803b158015611f7757600080fd5b505af1925050508015611fc5575060408051601f3d9081017fffffffffffffffffffffffffffffffffffffffffffffffffffffffffffffffe0168201909252611fc291810190613078565b60015b6120b957611fd16133ab565b806308c379a014156120ad5750611fe66133c7565b80611ff157506120af565b6040517f416c6c2077697a617264732068617665206265656e206d696e746564000000006020820152603c016040516020818303038152906040528051906020012081604051602001612044919061310d565b604051602081830303815290604052805190602001201461209457612068826127c9565b60d480547fffffffffffffffffffffffffffffffffffffffffffffffffff00ffffffffffff1690555050565b60d2805460ff191660011790556120a9612493565b5050565b505b3d6000803e3d6000fd5b60d382905560d05442906000906120d0908361317a565b905060008060d6541190506040518060e001604052808681526020016000815260200184815260200183815260200160006001600160a01b0316815260200160001515815260200182151581525060d760008881526020019081526020016000206000820151816000015560208201518160010155604082015181600201556060820151816003015560808201518160040160006101000a8154816001600160a01b0302191690836001600160a01b0316021790555060a08201518160040160146101000a81548160ff02191690831515021790555060c08201518160040160156101000a81548160ff02191690831515021790555090505085857f3c3ceaa711a7bb52d611f72b84ba6ab1c40a844ea0d8f1cf50632a49c0aef2c98585888660405161221a94939291909384526020840192909252151560408301521515606082015260800190565b60405180910390a3505050505050565b610eb5816127c9565b600054610100900460ff168061224c575060005460ff16155b6122be5760405162461bcd60e51b815260206004820152602e60248201527f496e697469616c697a61626c653a20636f6e747261637420697320616c72656160448201527f647920696e697469616c697a656400000000000000000000000000000000000060648201526084016107a9565b600054610100900460ff161580156122e0576000805461ffff19166101011790555b6122e8612a8a565b6122f0612b67565b8015610eb557600080547fffffffffffffffffffffffffffffffffffffffffffffffffffffffffffff00ff16905550565b600054610100900460ff168061233a575060005460ff16155b6123ac5760405162461bcd60e51b815260206004820152602e60248201527f496e697469616c697a61626c653a20636f6e747261637420697320616c72656160448201527f647920696e697469616c697a656400000000000000000000000000000000000060648201526084016107a9565b600054610100900460ff161580156123ce576000805461ffff19166101011790555b6122f0612c4f565b600054610100900460ff16806123ef575060005460ff16155b6124615760405162461bcd60e51b815260206004820152602e60248201527f496e697469616c697a61626c653a20636f6e747261637420697320616c72656160448201527f647920696e697469616c697a656400000000000000000000000000000000000060648201526084016107a9565b600054610100900460ff16158015612483576000805461ffff19166101011790555b61248b612a8a565b6122f0612d32565b60335460ff16156124e65760405162461bcd60e51b815260206004820152601060248201527f5061757361626c653a207061757365640000000000000000000000000000000060448201526064016107a9565b6033805460ff191660011790557f62e78cea01bee320cd4e420270b5ea74000d11b0c9f74754ebdbfc544b05a258611ec83390565b609780546001600160a01b038381167fffffffffffffffffffffffff0000000000000000000000000000000000000000831681179093556040519116919082907f8be0079c531659141344cd1fd0a4f28419497f9722a3daafe3b4186f6b6457e090600090a35050565b61258f8282612de8565b6120a95760cc60009054906101000a90046001600160a01b03166001600160a01b031663d0e30db0826040518263ffffffff1660e01b81526004016000604051808303818588803b1580156125e357600080fd5b505af11580156125f7573d6000803e3d6000fd5b505060cc546040517fa9059cbb0000000000000000000000000000000000000000000000000000000081526001600160a01b03878116600483015260248201879052909116935063a9059cbb92506044019050602060405180830381600087803b15801561266457600080fd5b505af1158015612678573d6000803e3d6000fd5b505050506040513d601f19601f8201168201806040525081019061269c9190612f93565b505050565b6000826126b05750600061273f565b60006126bc83856131a6565b9050826126c98583613192565b1461273c5760405162461bcd60e51b815260206004820152602160248201527f536166654d6174683a206d756c7469706c69636174696f6e206f766572666c6f60448201527f770000000000000000000000000000000000000000000000000000000000000060648201526084016107a9565b90505b92915050565b600061273c83836040518060400160405280601a81526020017f536166654d6174683a206469766973696f6e206279207a65726f000000000000815250612e66565b600061273c83836040518060400160405280601e81526020017f536166654d6174683a207375627472616374696f6e206f766572666c6f770000815250612e9d565b60cb60009054906101000a90046001600160a01b03166001600160a01b0316631249c58b6040518163ffffffff1660e01b8152600401602060405180830381600087803b15801561281957600080fd5b505af1925050508015612867575060408051601f3d9081017fffffffffffffffffffffffffffffffffffffffffffffffffffffffffffffffe01682019092526128649181019061305f565b60015b612909576128736133ab565b806308c379a014156120ad57506128886133c7565b8061289357506120af565b6040517f416c6c2077697a617264732068617665206265656e206d696e746564000000006020820152603c0160405160208183030381529060405280519060200120816040516020016128e6919061310d565b6040516020818303038152906040528051906020012014612094576120a9612493565b60d381905560d0544290600090612920908361317a565b60d6546040805160e08101825286815260006020808301828152838501898152606085018881526080860185815260a0870186815298151560c088018181528f885260d790965288872097518855935160018801559151600287015551600386015551600490940180549651925115157501000000000000000000000000000000000000000000027fffffffffffffffffffff00ffffffffffffffffffffffffffffffffffffffffff93151574010000000000000000000000000000000000000000027fffffffffffffffffffffff0000000000000000000000000000000000000000009098166001600160a01b039690961695909517969096179190911692909217909355905192935091869186917f3c3ceaa711a7bb52d611f72b84ba6ab1c40a844ea0d8f1cf50632a49c0aef2c991612a7b918891889188909384526020840192909252151560408301521515606082015260800190565b60405180910390a35050505050565b600054610100900460ff1680612aa3575060005460ff16155b612b155760405162461bcd60e51b815260206004820152602e60248201527f496e697469616c697a61626c653a20636f6e747261637420697320616c72656160448201527f647920696e697469616c697a656400000000000000000000000000000000000060648201526084016107a9565b600054610100900460ff161580156122f0576000805461ffff19166101011790558015610eb557600080547fffffffffffffffffffffffffffffffffffffffffffffffffffffffffffff00ff16905550565b600054610100900460ff1680612b80575060005460ff16155b612bf25760405162461bcd60e51b815260206004820152602e60248201527f496e697469616c697a61626c653a20636f6e747261637420697320616c72656160448201527f647920696e697469616c697a656400000000000000000000000000000000000060648201526084016107a9565b600054610100900460ff16158015612c14576000805461ffff19166101011790555b6033805460ff191690558015610eb557600080547fffffffffffffffffffffffffffffffffffffffffffffffffffffffffffff00ff16905550565b600054610100900460ff1680612c68575060005460ff16155b612cda5760405162461bcd60e51b815260206004820152602e60248201527f496e697469616c697a61626c653a20636f6e747261637420697320616c72656160448201527f647920696e697469616c697a656400000000000000000000000000000000000060648201526084016107a9565b600054610100900460ff16158015612cfc576000805461ffff19166101011790555b60016065558015610eb557600080547fffffffffffffffffffffffffffffffffffffffffffffffffffffffffffff00ff16905550565b600054610100900460ff1680612d4b575060005460ff16155b612dbd5760405162461bcd60e51b815260206004820152602e60248201527f496e697469616c697a61626c653a20636f6e747261637420697320616c72656160448201527f647920696e697469616c697a656400000000000000000000000000000000000060648201526084016107a9565b600054610100900460ff16158015612ddf576000805461ffff19166101011790555b6122f03361251b565b6040805160008082526020820190925281906001600160a01b03851690617530908590604051612e18919061310d565b600060405180830381858888f193505050503d8060008114612e56576040519150601f19603f3d011682016040523d82523d6000602084013e612e5b565b606091505b509095945050505050565b60008183612e875760405162461bcd60e51b81526004016107a99190613129565b506000612e948486613192565b95945050505050565b60008184841115612ec15760405162461bcd60e51b81526004016107a99190613129565b506000612e9484866131e3565b803560ff81168114612edf57600080fd5b919050565b600060208284031215612ef657600080fd5b813561273c81613464565b60008060208385031215612f1457600080fd5b823567ffffffffffffffff80821115612f2c57600080fd5b818501915085601f830112612f4057600080fd5b813581811115612f4f57600080fd5b8660208260051b8501011115612f6457600080fd5b60209290920196919550909350505050565b600060208284031215612f8857600080fd5b813561273c81613479565b600060208284031215612fa557600080fd5b815161273c81613479565b60008060008060008060008060006101208a8c031215612fcf57600080fd5b8935612fda81613464565b985060208a0135612fea81613464565b975060408a0135612ffa81613464565b965060608a0135955060808a0135945061301660a08b01612ece565b935060c08a0135925060e08a013561302d81613479565b809250506101008a013590509295985092959850929598565b60006020828403121561305857600080fd5b5035919050565b60006020828403121561307157600080fd5b5051919050565b6000806040838503121561308b57600080fd5b82519150602083015161309d81613479565b809150509250929050565b600080604083850312156130bb57600080fd5b50508035926020909101359150565b6000602082840312156130dc57600080fd5b813565ffffffffffff8116811461273c57600080fd5b60006020828403121561310457600080fd5b61273c82612ece565b6000825161311f8184602087016131fa565b9190910192915050565b60208152600082518060208401526131488160408501602087016131fa565b601f017fffffffffffffffffffffffffffffffffffffffffffffffffffffffffffffffe0169190910160400192915050565b6000821982111561318d5761318d61331e565b500190565b6000826131a1576131a161334d565b500490565b6000817fffffffffffffffffffffffffffffffffffffffffffffffffffffffffffffffff04831182151516156131de576131de61331e565b500290565b6000828210156131f5576131f561331e565b500390565b60005b838110156132155781810151838201526020016131fd565b83811115613224576000848401525b50505050565b6000816132395761323961331e565b507fffffffffffffffffffffffffffffffffffffffffffffffffffffffffffffffff0190565b7fffffffffffffffffffffffffffffffffffffffffffffffffffffffffffffffe0601f830116810181811067ffffffffffffffff821117156132ca577f4e487b7100000000000000000000000000000000000000000000000000000000600052604160045260246000fd5b6040525050565b60007fffffffffffffffffffffffffffffffffffffffffffffffffffffffffffffffff8214156133035761330361331e565b5060010190565b6000826133195761331961334d565b500690565b7f4e487b7100000000000000000000000000000000000000000000000000000000600052601160045260246000fd5b7f4e487b7100000000000000000000000000000000000000000000000000000000600052601260045260246000fd5b7f4e487b7100000000000000000000000000000000000000000000000000000000600052603260045260246000fd5b600060033d11156133c45760046000803e5060005160e01c5b90565b600060443d10156133d55790565b6040517ffffffffffffffffffffffffffffffffffffffffffffffffffffffffffffffffc803d016004833e81513d67ffffffffffffffff816024840111818411171561342357505050505090565b828501915081518181111561343b5750505050505090565b843d87010160208285010111156134555750505050505090565b612e5b6020828601018761325f565b6001600160a01b0381168114610eb557600080fd5b8015158114610eb557600080fdfea2646970667358221220c8e9b7dda1ee7686aa690bf1ac61dc8f19d5b56e9dc65d5d37e2d608aef5397764736f6c63430008060033",
  "linkReferences": {},
  "deployedLinkReferences": {}
}